:020000040800F2
:10000000600600200D0200084B0200084D020008A7
:100010004F020008510200085302000800000000CF
:100020000000000000000000000000005502000871
:100030005702000800000000590200085B02000897
:100040005D0200085D0200085D0200085D02000814
:100050005D0200085D0200085D0200085D02000804
:100060005D0200085D0200085D0200085D020008F4
:100070005D0200085D0200085D0200085D020008E4
:100080005D0200085D0200085D0200085D020008D4
:100090005D0200085D0200085D0200085D020008C4
:1000A0005D0200085D0200085D0200085D020008B4
:1000B0005D0200085D0200085D0200085D020008A4
:1000C0005D0200085D0200085D0200085D02000894
:1000D0005D0200085D0200085D0200085D02000884
:1000E0005D0200085D0200085D0200085D02000874
:1000F0005D0200085D0200085D0200085D02000864
:100100005D0200085D0200085D0200085D02000853
:100110005D0200085D0200085D0200085D02000843
:100120005D0200085D0200085D0200085D02000833
:100130005D0200085D0200085D0200085D02000823
:100140005D0200085D0200085D0200085D02000813
:100150005D0200085D0200085D0200085D02000803
:100160005D0200085D0200085D0200085D020008F3
:100170005D0200085D0200085D020008000000004A
:100180005D0200085D02000800F002F800F02EF8A1
:100190000AA090E8000C82448344AAF10107DA45E2
:1001A00001D100F023F8AFF2090EBAE80F0013F006
:1001B000010F18BFFB1A43F0010318471C0300008E
:1001C0002C0300000023002400250026103A28BF3D
:1001D00078C1FBD8520728BF30C148BF0B607047B9
:1001E0001FB500F06BF91FBD10B510BD00F057F83A
:1001F0001146FFF7F5FF00F021F900F075F803B4A0
:10020000FFF7F2FF03BC00F07DF800001748184923
:10021000184B99423CBF50F8042B41F8042BF8D3FB
:10022000154B16494FF000028B4238BF43F8042BA0
:10023000FAD3DFF84C00016841F470010160BFF3AC
:100240004F8FBFF36F8F0F480047FEE7FEE7FEE7D3
:10025000FEE7FEE7FEE7FEE7FEE7FEE7FEE700005B
:1002600009480A490A4A0B4B70470000E804000895
:100270000000002000000020000000206006002098
:1002800088ED00E089010008600000206006002081
:10029000600200206002002070477047704775467A
:1002A00000F02CF8AE4605006946534620F00700E2
:1002B000854618B020B5FFF7D3FFBDE820404FF0CA
:1002C00000064FF000074FF000084FF0000BAC465F
:1002D000ACE8C009ACE8C009ACE8C009ACE8C009AA
:1002E00021F007018D46704710B50446AFF300803A
:1002F0002046BDE81040FFF782BF0000004870476D
:100300000000002001491820ABBEFEE726000200D5
:100310007047000041F24C01C4F20201086840F04D
:10032000010008604FF09041086840F0020008604A
:10033000086820F0010008602021C4F60001086868
:1003400020F00F000860086840F0020008600C21EF
:10035000C4F60001086820F0030008607047000040
:1003600040F63441C4F2000108684FF6FF72904332
:10037000086086200860704740F63441C4F20001EE
:1003800008684FF6FF72904308603120086070479C
:1003900040F63441C4F2000108684FF6FF72904302
:1003A0000860E6200860704741F25801C4F202017B
:1003B000086840F00800086040F60041C4F20001FF
:1003C000086820F01000086040F62842C4F20002DD
:1003D0002720106040F62C42C4F2000240F2CF7099
:1003E000106040F61842C4F2000210684FF68F7396
:1003F000CFF6FE7318401060106840F06000106087
:10040000106840F00800106040F62042C4F200027C
:10041000106840F00100106040F63442C4F200025F
:1004200010684FF6FF739843106040F2E730106099
:10043000086840F0010008607047000080B582B095
:1004400000200190FFF766FFFFF7AEFFFFE7FFF721
:1004500093FF00200090FFE700984AF21F11C0F2BE
:100460000701884205DCFFE7FFE7009801300090B4
:10047000F2E7FFF775FF00200090FFE700984AF2CF
:100480001F11C0F20701884205DCFFE7FFE7009873
:1004900001300090F2E7FFF77BFF00200090FFE7BC
:1004A00000984AF21F11C0F20701884205DCFFE7FD
:1004B000FFE7009801300090F2E7C8E7F1EE100A7C
:1004C0004FF6FF71C0F2C03120EA010040F04070E9
:1004D000E1EE100A70470000E80400080000002068
:0804E00060060000C4010008E1
:040000050800018965
:00000001FF
