:020000040800F2
:10000000600600200D0200084B0200084D020008A7
:100010004F020008510200085302000800000000CF
:100020000000000000000000000000005502000871
:100030005702000800000000590200085B02000897
:100040005D0200085D0200085D0200085D02000814
:100050005D0200085D0200085D0200085D02000804
:100060005D0200085D0200085D0200085D020008F4
:100070005D0200085D0200085D0200085D020008E4
:100080005D0200085D0200085D0200085D020008D4
:100090005D0200085D0200085D0200085D020008C4
:1000A0005D0200085D0200085D0200085D020008B4
:1000B0005D0200085D0200085D0200085D020008A4
:1000C0005D0200085D0200085D0200085D02000894
:1000D0005D0200085D0200085D0200085D02000884
:1000E0005D0200085D0200085D0200085D02000874
:1000F0005D0200085D0200085D0200085D02000864
:100100005D0200085D0200085D0200085D02000853
:100110005D0200085D0200085D0200085D02000843
:100120005D0200085D0200085D0200085D02000833
:100130005D0200085D0200085D0200085D02000823
:100140005D0200085D0200085D0200085D02000813
:100150005D0200085D0200085D0200085D02000803
:100160005D0200085D0200085D0200085D020008F3
:100170005D0200085D0200085D020008000000004A
:100180005D0200085D02000800F002F800F02EF8A1
:100190000AA090E8000C82448344AAF10107DA45E2
:1001A00001D100F023F8AFF2090EBAE80F0013F006
:1001B000010F18BFFB1A43F001031847C8020000E3
:1001C000D80200000023002400250026103A28BF92
:1001D00078C1FBD8520728BF30C148BF0B607047B9
:1001E0001FB500F041F91FBD10B510BD00F057F864
:1001F0001146FFF7F5FF00F009F900F075F803B4B8
:10020000FFF7F2FF03BC00F07DF800001748184923
:10021000184B99423CBF50F8042B41F8042BF8D3FB
:10022000154B16494FF000028B4238BF43F8042BA0
:10023000FAD3DFF84C00016841F470010160BFF3AC
:100240004F8FBFF36F8F0F480047FEE7FEE7FEE7D3
:10025000FEE7FEE7FEE7FEE7FEE7FEE7FEE700005B
:1002600009480A490A4A0B4B7047000094040008E9
:100270000000002000000020000000206006002098
:1002800088ED00E089010008600000206006002081
:10029000600200206002002070477047704775467A
:1002A00000F02CF8AE4605006946534620F00700E2
:1002B000854618B020B5FFF7D3FFBDE820404FF0CA
:1002C00000064FF000074FF000084FF0000BAC465F
:1002D000ACE8C009ACE8C009ACE8C009ACE8C009AA
:1002E00021F007018D46704710B50446AFF300803A
:1002F0002046BDE81040FFF782BF0000004870476D
:100300000000002001491820ABBEFEE726000200D5
:100310007047000041F24C01C4F20201086840F04D
:100320000100086041F25801C4F20201086840F07F
:10033000010008604FF09041086820F440600860B8
:10034000086840F4006008600821C4F600010868ED
:1003500040F4406008600C21C4F60001086820F4F5
:10036000406008602021C4F60001086820F4700095
:100370000860086840F4801008604FF08041086809
:1003800020F0100008602822C4F2000210684FF626
:10039000FF73984310602C22C4F200021068002002
:1003A0001060106840F47A7010601822C4F20002E5
:1003B00010684FF68F73CFF6FE7318401060106808
:1003C00040F020001060106840F04000106010689D
:1003D00040F0080010602022C4F20002106840F0D3
:1003E00002001060106840F0010010603422C4F276
:1003F000000210686FF30F001060106840F4FA708C
:100400001060086840F001000860704780B584B053
:1004100000200390FFF77EFF4FF47A700190009068
:10042000FFE7009A0199B2FBF1F000FB112042F6C0
:100430003441C4F20101086000980138009000982E
:1004400020B9FFE74FF47A700090FFE70020029098
:10045000FFE70298B0F57A7F05DAFFE7FFE7029839
:1004600001300290F5E7DCE7F1EE100A4FF6FF717C
:10047000C0F2C03120EA010040F04070E1EE100A05
:10048000704700009404000800000020600600008F
:04049000C40100089B
:040000050800018965
:00000001FF
