:020000040800F2
:10000000600600200D0200084B0200084D020008A7
:100010004F020008510200085302000800000000CF
:100020000000000000000000000000005502000871
:100030005702000800000000590200085B02000897
:100040005D0200085D0200085D0200085D02000814
:100050005D0200085D0200085D0200085D02000804
:100060005D0200085D0200085D0200085D020008F4
:100070005D0200085D0200085D0200085D020008E4
:100080005D0200085D0200085D0200085D020008D4
:100090005D0200085D0200085D0200085D020008C4
:1000A0005D0200085D0200085D0200085D020008B4
:1000B0005D0200085D0200085D0200085D020008A4
:1000C0005D0200085D0200085D0200085D02000894
:1000D0005D0200085D0200085D0200085D02000884
:1000E0005D0200085D0200085D0200085D02000874
:1000F0005D0200085D0200085D0200085D02000864
:100100005D0200085D0200085D0200085D02000853
:100110005D0200085D0200085D0200085D02000843
:100120005D0200085D0200085D0200085D02000833
:100130005D0200085D0200085D0200085D02000823
:100140005D0200085D0200085D0200085D02000813
:100150005D0200085D0200085D0200085D02000803
:100160005D0200085D0200085D0200085D020008F3
:100170005D0200085D0200085D020008000000004A
:100180005D0200085D02000800F002F800F02EF8A1
:100190000AA090E8000C82448344AAF10107DA45E2
:1001A00001D100F023F8AFF2090EBAE80F0013F006
:1001B000010F18BFFB1A43F0010318471403000096
:1001C000240300000023002400250026103A28BF45
:1001D00078C1FBD8520728BF30C148BF0B607047B9
:1001E0001FB500F068F91FBD10B510BD00F057F83D
:1001F0001146FFF7F5FF00F053F900F075F803B46E
:10020000FFF7F2FF03BC00F07DF800001748184923
:10021000184B99423CBF50F8042B41F8042BF8D3FB
:10022000154B16494FF000028B4238BF43F8042BA0
:10023000FAD3DFF84C00016841F470010160BFF3AC
:100240004F8FBFF36F8F0F480047FEE7FEE7FEE7D3
:10025000FEE7FEE7FEE7FEE7FEE7FEE7FEE700005B
:1002600009480A490A4A0B4B70470000E00400089D
:100270000000002000000020000000206006002098
:1002800088ED00E089010008600000206006002081
:10029000600200206002002070477047704775467A
:1002A00000F02CF8AE4605006946534620F00700E2
:1002B000854618B020B5FFF7D3FFBDE820404FF0CA
:1002C00000064FF000074FF000084FF0000BAC465F
:1002D000ACE8C009ACE8C009ACE8C009ACE8C009AA
:1002E00021F007018D46704710B50446AFF300803A
:1002F0002046BDE81040FFF782BF0000004870476D
:100300000000002001491820ABBEFEE726000200D5
:100310007047000040F61401C4F60001086820F49C
:1003200000700860086820F4807008607047000062
:1003300040F61401C4F60001086820F020000860AF
:10034000086820F0400008607047000041F24C014E
:10035000C4F20201086840F00400086040F60002A0
:10036000C4F6000200201060116841F20043C0F2A0
:1003700005031943116040F60802C4F60002116833
:1003800043F60043C0F20F031943116040F6040125
:10039000C4F60001086040F60C01C4F600010860D4
:1003A0007047000080B582B0FFF7B4FF00F03EF860
:1003B00000200190FFE70198B0F5007F25DAFFE704
:1003C00000F034F800F05CF8FFF7A4FF00F058F8F4
:1003D00000F048F800F054F8FFF7AAFF00F050F8DA
:1003E00000F032F800F04CF8FFF794FF00F048F806
:1003F00000F00EF800F044F8FFF79AFF00F040F824
:10040000FFE7019801300190D5E702B080BD000000
:1004100040F61401C4F60001086820F4007008607A
:10042000086840F4807008607047000040F61401CE
:10043000C4F60001086820F020000860086840F059
:10044000400008607047000040F61401C4F6000147
:10045000086820F040000860086840F0200008604C
:100460007047000040F61401C4F60001086820F44B
:1004700080700860086840F40070086070470000F1
:1004800081B000200090FFE70098DB2805DCFFE743
:10049000FFE7009801300090F6E701B070470000D8
:1004A00080B5FFF753FFFFF77DFFFFF733FFFFF73F
:1004B0003FFF002080BDF1EE100A4FF6FF71C0F241
:1004C000C03120EA010040F04070E1EE100A7047B0
:1004D000E00400080000002060060000C4010008DD
:040000050800018965
:00000001FF
