:020000040800F2
:100000007006002029020008670200086902000843
:100010006B0200086D0200086F020008000000007B
:100020000000000000000000000000007102000855
:100030007302000800000000750200088106000835
:1000400079020008790200087902000879020008A4
:100050007902000879020008790200087902000894
:100060007902000879020008790200087902000884
:100070007902000879020008790200087902000874
:100080007902000879020008790200087902000864
:100090007902000879020008790200087902000854
:1000A0007902000879020008790200087902000844
:1000B0007902000879020008790200087902000834
:1000C0007902000879020008790200087902000824
:1000D0007902000879020008790200087902000814
:1000E0007902000879020008790200087902000804
:1000F00079020008790200087902000879020008F4
:1001000079020008790200087902000879020008E3
:1001100079020008790200087902000879020008D3
:1001200079020008790200087902000879020008C3
:1001300079020008790200087902000879020008B3
:1001400079020008790200087902000879020008A3
:100150007902000879020008790200087902000893
:100160007902000879020008790200087902000883
:1001700079020008790200087902000800000000F6
:10018000790200087902000800F002F800F03CF85B
:100190000AA090E8000C82448344AAF10107DA45E2
:1001A00001D100F031F8AFF2090EBAE80F0013F0F8
:1001B000010F18BFFB1A43F001031847680800003D
:1001C00088080000103A24BF78C878C1FAD85207CE
:1001D00024BF30C830C144BF04680C6070470000C1
:1001E0000023002400250026103A28BF78C1FBD840
:1001F000520728BF30C148BF0B6070471FB500F0E1
:1002000004FC1FBD10B510BD00F057F81146FFF7F4
:10021000F5FF00F0AFFB00F075F803B4FFF7F2FF55
:1002200003BC00F07DF8000017481849184B9942AC
:100230003CBF50F8042B41F8042BF8D3154B16495A
:100240004FF000028B4238BF43F8042BFAD3DFF89B
:100250004C00016841F470010160BFF34F8FBFF3A0
:100260006F8F0F480047FEE7FEE7FEE7FEE7FEE779
:10027000FEE7FEE7FEE7FEE7FEE7000009480A4961
:100280000A4A0B4B70470000480A00080000002093
:1002900008000020080000207006002088ED00E023
:1002A0008901000870000020700600207002002004
:1002B00070020020704770477047754600F02CF8B8
:1002C000AE4605006946534620F00700854618B043
:1002D00020B5FFF7D3FFBDE820404FF000064FF0F8
:1002E00000074FF000084FF0000BAC46ACE8C00927
:1002F000ACE8C009ACE8C009ACE8C00921F00701CE
:100300008D46704710B50446AFF300802046BDE827
:100310001040FFF782BF000000487047080000202F
:1003200001491820ABBEFEE726000200704700001E
:1003300041F24C01C4F20201086840F0010008607B
:100340004FF09041086820F440600860086840F46D
:10035000806008600821C4F60001086820F440604D
:1003600008600421C4F60001086820F0200008603D
:100370000C21C4F60001086820F440600860704752
:100380001421C4F60001086880F02000086070475E
:1003900041F24C01C4F20201086840F0020008601A
:1003A00040F20041C4F60001086820F47C60086057
:1003B000086840F42860086040F22041C4F600015B
:1003C00008686FF317300860086845F20002C0F251
:1003D00055021043086040F20841C4F60001086865
:1003E00040F47C60086040F20441C4F600010868F3
:1003F00020F03800086040F20C41C4F600010868A3
:1004000020F47C600860704741F26001C4F2020190
:10041000086840F48050086041F24001C4F20201D3
:10042000086840F480500860086820F48050086034
:1004300043F20001C4F20101086820F040000860A6
:10044000086820F480600860086820F400400860B4
:10045000086820F480400860086820F08000086088
:1004600043F20402C4F20102106820F470601060CC
:10047000106840F4E0601060106820F01000106018
:10048000086820F002000860086820F00100086099
:10049000086820F038000860086840F0180008601C
:1004A000086820F400500860086840F00400086004
:1004B000086840F400700860106840F008001060A0
:1004C000086840F480700860106840F48050106044
:1004D000086840F0400008607047000041F24C019D
:1004E000C4F20201086840F00200086040F20041D6
:1004F000C4F60001086820F07C400860086840F0FD
:100500002840086040F22441C4F6000108686FF3F7
:100510001F50086008680022C5F25052104308605E
:1005200040F20841C4F60001086840F07C400860D1
:1005300040F20441C4F60001086820F460400860FD
:1005400040F20C41C4F60001086820F07C400860CD
:100550007047000041F25801C4F20201086840F4FB
:100560008040086041F23801C4F20201086840F49A
:1005700080400860086820F48040086043F600016D
:10058000C4F20001086820F040000860086840F4E8
:1005900080600860086820F400400860086820F463
:1005A00080400860086820F08000086043F604027C
:1005B000C4F20002106820F470601060106840F40B
:1005C000E0601060106820F010001060086820F0F3
:1005D00002000860086820F001000860086820F048
:1005E00038000860086840F018000860086820F4C7
:1005F00000500860086820F004000860086840F4B3
:1006000000700860106840F008001060086820F46E
:1006100080700860106840F480501060086840F0F6
:10062000400008607047000082B001900091FFE731
:1006300001988068C00708B9FFE7F9E70198007BD7
:100640000099087002B0704782B001908DF80310D5
:10065000FFE70198806800F00200022801D0FFE760
:10066000F7E79DF8030001990873FFE70198806898
:100670000006002801D5FFE7F8E702B07047000048
:1006800040F26801C2F2000108680130086070475A
:1006900080B582B04EF21001CEF20001019100202F
:1006A00008604EF21402CEF2000243F67F01C0F25F
:1006B000010111604EF21801CEF2000108604FF006
:1006C000FF300090012100F015F9009800F0FAF8D1
:1006D0000199086840F002000860086840F00400D2
:1006E0000860086840F00100086002B080BD0000AA
:1006F00083B042F20001C4F20201086820F0070052
:100700000860086840F00200086041F20001C4F28D
:100710000201086840F480700860FFE741F20000C1
:10072000C4F2020000684005002801D4FFE7F5E7A5
:100730001020029041F20401C4F20201086820F086
:10074000F8500860029A086840EA0260086041F2C6
:100750000001C4F20201086820F080700860FFE721
:1007600041F20000C4F2020000688001002801D5B7
:10077000FFE7F5E741F20C01C4F2020101910868BC
:1007800020F003000860086840F002000860086874
:10079000142262F30E2008600868012262F306103A
:1007A0000860086820F0C0600860086840F0807049
:1007B000086041F20001C4F20201086840F0807054
:1007C0000860FFE741F20000C4F202000068800107
:1007D000002801D4FFE7F5E741F20801C4F2020165
:1007E000086820F003000860086840F00300086013
:1007F000FFE741F20800C4F20200006800F00C00BC
:100800000C2801D0FFE7F4E741F20801C4F202012D
:10081000086820F0F0000860086820F4E0600860D4
:10082000086820F46050086041F20001C4F202013F
:10083000086820F080600860FFE741F20000C4F221
:10084000020000684001002801D5FFE7F5E741F20A
:100850001001C4F202010091086820F4FE40086013
:10086000086840F4C0500860086840F40030086030
:10087000086840F48030086041F20001C4F20201CF
:10088000086840F080600860FFE741F20000C4F2B1
:10089000020000684001002801D4FFE7F5E741F2BB
:1008A0008801C4F20201086820F44000086041F2A7
:1008B0006001C4F20201086840F40010086003B04F
:1008C0007047000081B08DF803009DF903000028F7
:1008D0000ED4FFE79DF9031001F01F0201209040A4
:1008E0004A094EF20011CEF2000141F82200FFE762
:1008F00001B0704782B08DF8070000919DF90700A4
:1009000000280AD4FFE7009800019DF907104EF275
:100910000042CEF2000288540BE0009800019DF8DE
:10092000071001F00F014EF61452CEF20002885467
:10093000FFE702B07047000082B0019040F268000B
:10094000C2F2000000680090FFE740F26800C2F2C7
:10095000000000680099401A0199884201D2FFE71F
:10096000F3E740F26801C2F200010020086002B023
:100970007047000080B584B000200390FFF7B8FEF8
:10098000FFF786FEFFF7D4FCFFF702FDFFF7A6FD99
:10099000FFF73AFDFFF7DEFDFFE740F20000C2F28D
:1009A00000000190017843F20000C4F20100FFF75B
:1009B0004BFE40F26C01C2F20001029143F60000CE
:1009C000C4F20000FFF730FE019802990078097820
:1009D000884203D1FFE7FFF7D3FCFFE740F20001B5
:1009E000C2F20001087801304CF6CD42CCF6CC4280
:1009F000A0FB0232D20802EB8202A0EB4200087098
:100A00004FF47A70FFF798FFC7E7F1EE100A4FF640
:100A1000FF71C0F2C03120EA010040F04070E1EE09
:100A2000100A7047480A0008000000200800000073
:100A3000C4010008500A00080800002068060000F1
:100A4000E0010008000000000100000000000000BC
:040000050800018965
:00000001FF
