:020000040800F2
:10000000600600200D0200084B0200084D020008A7
:100010004F020008510200085302000800000000CF
:100020000000000000000000000000005502000871
:100030005702000800000000590200085B02000897
:100040005D0200085D0200085D0200085D02000814
:100050005D0200085D0200085D0200085D02000804
:100060005D0200085D0200085D0200085D020008F4
:100070005D0200085D0200085D0200085D020008E4
:100080005D0200085D0200085D0200085D020008D4
:100090005D0200085D0200085D0200085D020008C4
:1000A0005D0200085D0200085D0200085D020008B4
:1000B0005D0200085D0200085D0200085D020008A4
:1000C0005D0200085D0200085D0200085D02000894
:1000D0005D0200085D0200085D0200085D02000884
:1000E0005D0200085D0200085D0200085D02000874
:1000F0005D0200085D0200085D0200085D02000864
:100100005D0200085D0200085D0200085D02000853
:100110005D0200085D0200085D0200085D02000843
:100120005D0200085D0200085D0200085D02000833
:100130005D0200085D0200085D0200085D02000823
:100140005D0200085D0200085D0200085D02000813
:100150005D0200085D0200085D0200085D02000803
:100160005D0200085D0200085D0200085D020008F3
:100170005D0200085D0200085D020008000000004A
:100180005D0200085D02000800F002F800F02EF8A1
:100190000AA090E8000C82448344AAF10107DA45E2
:1001A00001D100F023F8AFF2090EBAE80F0013F006
:1001B000010F18BFFB1A43F001031847D4020000D7
:1001C000E40200000023002400250026103A28BF86
:1001D00078C1FBD8520728BF30C148BF0B607047B9
:1001E0001FB500F048F91FBD10B510BD00F057F85D
:1001F0001146FFF7F5FF00F0E9F800F075F803B4D9
:10020000FFF7F2FF03BC00F07DF800001748184923
:10021000184B99423CBF50F8042B41F8042BF8D3FB
:10022000154B16494FF000028B4238BF43F8042BA0
:10023000FAD3DFF84C00016841F470010160BFF3AC
:100240004F8FBFF36F8F0F480047FEE7FEE7FEE7D3
:10025000FEE7FEE7FEE7FEE7FEE7FEE7FEE700005B
:1002600009480A490A4A0B4B70470000A0040008DD
:100270000000002000000020000000206006002098
:1002800088ED00E089010008600000206006002081
:10029000600200206002002070477047704775467A
:1002A00000F02CF8AE4605006946534620F00700E2
:1002B000854618B020B5FFF7D3FFBDE820404FF0CA
:1002C00000064FF000074FF000084FF0000BAC465F
:1002D000ACE8C009ACE8C009ACE8C009ACE8C009AA
:1002E00021F007018D46704710B50446AFF300803A
:1002F0002046BDE81040FFF782BF0000004870476D
:100300000000002001491820ABBEFEE726000200D5
:100310007047000041F20001C4F20201086840F495
:1003200080700860FFE741F20000C4F2020000683C
:100330004005002801D4FFE7F5E741F20801C4F2C7
:100340000201086820F003000860086840F001001E
:100350000860FFE741F20800C4F20200006810F0F4
:100360000C0F01D1FFE7F5E741F24C01C4F20201A5
:10037000086840F0050008604FF09041086820F4DC
:1003800040600860086840F4806008600421C4F69A
:100390000001086820F0200008600C21C4F600016C
:1003A000086820F44060086040F60001C4F60001CF
:1003B000086820F04060086040F60C01C4F60001B7
:1003C000086820F0406008607047000080B588B081
:1003D000002001900790FFF79DFF01980690FFE72E
:1003E0004FF40050059040F61000C4F6000000687D
:1003F00005990840401AB0FA80F04009049004982A
:10040000D8B1FFE706980130B8B1FFE701200690A8
:100410001421C4F60001086840F0200008600020A4
:100420000390FFE70398B0F57A7F05DAFFE7FFE76F
:10043000039801300390F5E71CE00498C8B1FFE78A
:100440000698B0B1FFE7002006901422C4F600021F
:10045000116861F0200111600290FFE70298B0F589
:100460007A7F05DAFFE7FFE7029801300290F5E7AF
:10047000FFE7FFE7B4E7F1EE100A4FF6FF71C0F2B5
:10048000C03120EA010040F04070E1EE100A7047F0
:10049000A00400080000002060060000C40100085D
:040000050800018965
:00000001FF
